:100000000C944B010C947C010C947C010C947C01AD
:100010000C947C010C947C010C947C010C947C016C
:100020000C947C010C947C010C947C010C947C015C
:100030000C947C010C947C010C947C010C947C014C
:100040000C947C010C947C010C947C010C947C013C
:100050000C947C010C947C010C947C010C9448134E
:100060000C9416150C94BC130C9492130C947C01F4
:100070000C947C010C947C010C947C010C947C010C
:100080000C947C010C9443150C947C010C947C0121
:100090000C947C010C947C010C947C010C94F21364
:1000A0000C947C010C947C010C947C010C947C01DC
:1000B0000C947C010C947C010C947C010C947C01CC
:1000C0000C947C010C947C010C947C010C947C01BC
:1000D0000C947C010C947C010C947C010C947C01AC
:1000E0000C947C010C9417050C94BC030C946602D0
:1000F0000C9437020C946B030C946C030C94A004C6
:100100000C946A020C940F110C9402040C942502B6
:100110000C9460020C9440020C94CA030C94A80343
:100120000C94C7150C9408050C944F040C94070507
:100130000C943A020C9474060C946A030C942F02EB
:100140000C9433020C9458020C944A020C945C02F6
:100150000C945E050C9444020C942A050C942B021A
:100160000C9465020C9431050C9499030C944E0286
:100170000C94520200002100240027002A002D00C8
:100180003000330001010000040107010A010000F2
:1001900020002300260029002C002F00320000013F
:1001A000000003010601090100000A0B02090C0D01
:1001B0000E0807030401000000000000000000001A
:1001C000000000000000000000000000000000002F
:1001D00000000000121110000000000000000000EC
:1001E000000000000000000000000000000001020C
:1001F0001020200808102040102040800201020139
:1002000008040201010204081020408080402010F0
:100210000804020180040201804020100804020149
:1002200008040201010204081020408001020408B1
:100230001020408000002200250028002B002E0006
:100240003100340002010000050108010B01050521
:100250000505070508080808020202020A0A08083C
:10026000040404040101010101010101030303036A
:1002700003030303040707070C0C0C0C0C0C0C0CF9
:100280000202020206060606060606060B0B0B0B0A
:100290000B0B0B0BC71511241FBECFEFD1E2DEBF36
:1002A000CDBF00E00CBF12E0A0E0B2E0E6EBFBE364
:1002B00000E00BBF02C007900D92AC3EB107D9F72A
:1002C00025E0ACEEB2E001C01D92A633B207E1F723
:1002D00011E0CBE4D1E000E006C021970109802FB6
:1002E000FE010E94B71DCA34D10780E00807A9F7B4
:1002F0000E946C160C94D91D0C940000CF93DF93D0
:10030000FC018091DC0385AB40E059E160E070E0E6
:1003100046AB57AB60AF71AFEF01CC5BDF4F93E003
:10032000988312821382148215821286938720E2A8
:100330003EE4378726872685378535872487118AC7
:10034000108A11A212A213A214A210A2138E128E4E
:1003500095A1907895A39FEF96A311821082A0910A
:10036000DA03B091DB032AED33E0109729F09D0109
:100370000D90BC91A02DF9CFD901ED93FC9391E0A4
:10038000980F9093DC03863008F01882DF91CF91AC
:1003900008958091AB048F7351F0F8941092A704E4
:1003A0001092A8041092A9041092AA0478940895B7
:1003B0008091AB048F7331F1F8948091A7049091F0
:1003C000A804A091A904B091AA048093CB049093AF
:1003D000CC04A093CD04B093CE0478942091CA04A9
:1003E0006091CB047091CC048091CD049091CE04A7
:1003F000233061F030E050E040E00E94981DB901E8
:10040000CA01089560E070E080E090E008958150B6
:10041000823108F05AC0E82FF0E08827ED5EFD4FEA
:100420008F4F0C94B71D3302370225022B022F0287
:1004300065023A02400244024A024E025202580247
:100440005C026502600266026A02809180008F771A
:10045000809380000895809180008F7DF9CF8091F6
:100460008000877FF5CF84B58F7784BD089584B5EC
:100470008F7DFBCF8091B0008F778093B00008957F
:100480008091B0008F7DF9CF809190008F7780931D
:1004900090000895809190008F7DF9CF8091900019
:1004A000877FF5CF8091A0008F778093A00008957B
:1004B0008091A0008F7DF9CF8091A000877FF5CF3C
:1004C000809120018F7780932001089580912001F1
:1004D0008F7DF9CF80912001877FF5CFCF93DF9378
:1004E000282F30E0F901E855FE4F8491F901E251DF
:1004F000FE4FD491F901E25BFD4FC491CC23A1F0F2
:1005000081110E940702EC2FF0E0EE0FFF1FE2576F
:10051000FE4FA591B491EC91ED2381E090E009F4B8
:1005200080E0DF91CF91089580E090E0FACF1F93B3
:10053000CF93DF93282F30E0F901E855FE4F8491E7
:10054000F901E251FE4FD491F901E25BFD4FC491F4
:10055000CC23A9F0162F81110E940702EC2FF0E0A6
:10056000EE0FFF1FEC5CFD4FA591B4918FB7F8948F
:10057000EC91111108C0D095DE23DC938FBFDF9181
:10058000CF911F910895DE2BF8CFCF93DF9390E0AA
:10059000FC01E251FE4F2491825B9D4FFC0184914E
:1005A0008823D1F090E0880F991FFC01EC58FE4F92
:1005B000A591B491FC01EC5CFD4FC591D491611102
:1005C0000EC09FB7F8948C91E22FE0958E238C9308
:1005D0002881E223E8839FBFDF91CF9108958FB7F1
:1005E000F894EC91E22BEC938FBFF6CF863308F0B2
:1005F000865320917B00982F9870277F922B9093A1
:100600007B008770806480937C0080917A00806496
:1006100080937A0080917A0086FDFCCF80917800EB
:100620009091790008953FB7F8948091D10390910B
:10063000D203A091D303B091D40326B5A89B05C0E3
:100640002F3F19F00196A11DB11D3FBFBA2FA92F51
:10065000982F8827BC01CD01620F711D811D911D4E
:1006600042E0660F771F881F991F4A95D1F70895BA
:100670008F929F92AF92BF92CF92DF92EF92FF92B2
:100680004B015C010E9413036B017C010E94130368
:100690006C197D098E099F09683E7340810591059B
:1006A000A8F321E0821A9108A108B10888EEC80ECB
:1006B00083E0D81EE11CF11C81149104A104B10453
:1006C00029F7FF90EF90DF90CF90BF90AF909F9071
:1006D0008F90089508950895AF92BF92CF92DF92C0
:1006E000EF92FF920F931F93CF93DF936C017B01E7
:1006F0008B01040F151FEB015E01AE18BF08C01778
:10070000D10759F06991D601ED91FC910190F081EA
:10071000E02DC6011995892B79F7C501DF91CF919D
:100720001F910F91FF90EF90DF90CF90BF90AF900F
:100730000895FC01538D448D252F30E0842F90E0E7
:10074000821B930B541710F0CF96089501970895CC
:10075000FC01918D828D981761F0A28DAE0FBF2F95
:10076000B11D5D968C91928D9F5F9F73928F90E0EB
:1007700008958FEF9FEF0895FC01918D828D98175A
:1007800031F0828DE80FF11D858D90E008958FEF97
:100790009FEF0895FC01918D228D892F90E0805C60
:1007A0009F4F821B91098F73992708958DED93E0D8
:1007B0000E94CA0321E0892B09F420E0822F0895CA
:1007C000FC01A48DA80FB92FB11DA35ABF4F2C91C6
:1007D000848D90E001968F739927848FA689B789BD
:1007E0002C93A089B1898C91837080648C93938DB4
:1007F000848D981306C00288F389E02D80818F7D57
:1008000080830895EF92FF920F931F93CF93DF930E
:10081000EC0181E0888F9B8D8C8D98131AC0E8893C
:10082000F989808185FF15C09FB7F894EE89FF890B
:100830006083E889F98980818370806480839FBFA9
:1008400081E090E0DF91CF911F910F91FF90EF90A9
:100850000895F62E0B8D10E00F5F1F4F0F731127B9
:10086000E02E8C8D8E110CC00FB607FCFACFE889F4
:10087000F989808185FFF5CFCE010E94E003F1CF99
:10088000EB8DEC0FFD2FF11DE35AFF4FF0829FB768
:10089000F8940B8FEA89FB8980818062CFCFCF9358
:1008A000DF93EC01888D8823B9F0AA89BB89E88998
:1008B000F9898C9185FD03C0808186FD0DC00FB63E
:1008C00007FCF7CF8C9185FFF2CF808185FFEDCFBC
:1008D000CE010E94E003E9CFDF91CF91089580E03F
:1008E00090E0892B29F00E94D60381110E9400001C
:1008F00080E090E0892B49F080E090E0892B29F09E
:100900000E94000081110E94000080E090E0892B8D
:1009100049F080E090E0892B29F00E9400008111CD
:100920000E94000080E090E0892B49F080E090E098
:10093000892B29F00E94000081110C940000089579
:10094000089520913B03260F3327331F21323105B1
:10095000ECF420918403FC0190E080E0243069F005
:1009600082E00895A0913B032191AC01455E5C4F6C
:10097000A40FB52FB11D2C930196861798F3809183
:100980003B03680F60933B0380E0089581E0089586
:100990001092840381E08093830310925E0361E0F0
:1009A00084E10E94970261E085E10E949702E9EBF1
:1009B000F0E080818E7F808380818D7F808388E4DA
:1009C0008093B80085E48093BC000895CF93DF93B3
:1009D00091E090931A038823B9F0C091B800D091A8
:1009E000BA008091BC008A7B8093BC0060E084E107
:1009F0000E94970260E085E10E9497020E94C8046D
:100A0000D093BA00C093B800DF91CF9108950895B4
:100A1000E091B3038091B203E81730F4F0E0E650C0
:100A2000FD4F808190E008958FEF9FEF08959091A2
:100A3000B3038091B2032FEF3FEF981748F4E92FEB
:100A4000F0E0E650FD4F208130E09F5F9093B303CC
:100A5000C90108958091B2039091B303891B990B4A
:100A60000895CF92DF92EF92FF920F931F93CF934F
:100A7000DF937C01CB018A0120918A03222389F034
:100A8000EB016B01C40ED51ECC15DD0569F0699133
:100A9000D701ED91FC910190F081E02DC7011995EE
:100AA000F3CF642F0E94A104C801DF91CF911F9161
:100AB0000F91FF90EF90DF90CF900895CF93DF9349
:100AC0001F92CDB7DEB7698320918A032223F9F004
:100AD0002091B003203258F021E030E0FC01338354
:100AE000228390E080E00F90DF91CF910895809174
:100AF000B103E82FF0E0E557FC4F998190838F5FB9
:100B00008093B1038093B00381E090E0ECCF61E08B
:100B1000CE0101960E94A104F7CFCF92DF92EF920F
:100B2000FF920F931F93CF93DF93FC01C48121E0C9
:100B300020938A03C093AB031092B1031092B003C9
:100B40008385682B8AE794E00E945E05D091B0030C
:100B5000D13208F092C00E9413036B017C01809196
:100B60008403811165C082E08093840381E08093D7
:100B700083038FEF8093820310928103D0938003CD
:100B8000ABE8B3E0E0E6F3E080E0D81385C0109274
:100B90005F0380915F03CC0FC82BC0935F038091EC
:100BA0005E03813009F07CC010925E030E94130343
:100BB0006B017C0180915F038093BB008091860371
:100BC00090918703A0918803B0918903892B8A2B88
:100BD0008B2B99F00E9413030091860310918703D9
:100BE00020918803309189036C197D098E099F0932
:100BF0000617170728073907E0F18091BC0083FD2D
:100C0000D9CF85EC8093BC000E9413036B017C015B
:100C100080918403823009F445C0809182038F3F24
:100C200061F180918203803241F18091820325C07D
:100C30008091860390918703A0918803B0918903E6
:100C4000892B8A2B8B2B09F48ACF0E9413030091E6
:100C500086031091870320918803309189036C19D2
:100C60007D098E099F09061717072807390708F01D
:100C700076CF809185030E94E6041092B103109212
:100C8000B00310928A03DF91CF911F910F91FF90D3
:100C9000EF90DF90CF9008959D9191938F5F75CFE6
:100CA00085EEB0CF8091860390918703A091880351
:100CB000B0918903892B8A2B8B2B09F4A9CF0E9431
:100CC00013030091860310918703209188033091CC
:100CD00089036C197D098E099F09061717072807D4
:100CE000390708F095CFC5CF90E080E00895FC016A
:100CF000909171009B7F909371009091F5029F5F9E
:100D00009093F502789481E090A1953008F480E00A
:100D10009091F502992319F091509093F5029091DA
:100D2000F502911105C0909171009460909371004B
:100D300008954F925F926F927F928F929F92AF929F
:100D4000BF92CF92DF92EF92FF920F931F93CF93B8
:100D5000DF93EC01FC01E05CFF4F40835183628331
:100D600073832A013B0177FF07C0442455243201D5
:100D7000441A550A660A770A730162018A8D9B8DAF
:100D8000892B21F488A1893009F054C1122F4A011E
:100D90005B01CE010E947706882309F415C18B857B
:100DA00018160CF056C0181419041A041B040CF47D
:100DB00055C0809171008B7F809371008091F50206
:100DC0008F5F8093F5027894112319F189A19AA17C
:100DD000ABA1BCA1FE01EB5BFF4FC080D180E280E4
:100DE000F3808C199D09AE09BF09181619061A0659
:100DF0001B060CF0D6C089A19AA1ABA1BCA18C198D
:100E00009D09AE09BF0973016201C80ED91EEA1E11
:100E1000FB1E8C8D9D8D28A1293009F0CFC02A8D15
:100E20003B8D821B930B6E8D7F8D0E94621D620F26
:100E3000731FCB01B0E0A0E08A839B83AC83BD83AA
:100E40008A819B81AC81BD818C0D9D1DAE1DBF1D16
:100E500057C0882309F4ADCFB7FEABCF80917100A6
:100E60008B7F809371008091F5028F5F8093F502F4
:100E70007894112331F149A15AA16BA17CA1FE0103
:100E8000EB5BFF4F80819181A281B381481B590B9D
:100E90006A0B7B0B1416150616061706B4F549A146
:100EA0005AA16BA17CA18A019B01081B190B2A0B7B
:100EB0003B0BD901C80173016201C81AD90AEA0AB9
:100EC000FB0A8C8D9D8D28A1293041F52A8D3B8D03
:100ED000821B930B6E8D7F8D0E94621D620F731FAC
:100EE000CB01B0E0A0E0C816D906EA06FB06C4F5BF
:100EF0008A839B83AC83BD838C199D09AE09BF098E
:100F00008E839F83A887B9872BC049A15AA16BA163
:100F10007CA1841B950BA60BB70BCDCFAC0170E069
:100F200060E04C155D056E057F05B4F00196B0E0FC
:100F3000A0E08A839B83AC83BD838A819B81AC8143
:100F4000BD818C199D09AE09BF098E839F83A88737
:100F5000B98788E088A304C0CA82DB82EC82FD8264
:100F60008091F502882319F081508093F5028091D9
:100F7000F502811105C08091710084608093710039
:100F8000DF91CF911F910F91FF90EF90DF90CF9065
:100F9000BF90AF909F908F907F906F905F904F9099
:100FA000089589A19AA1ABA1BCA1A7019601281B14
:100FB000390B4A0B5B0BDA01C90125CFBC016F5F0E
:100FC0007F4F88E088A335CF81149104A104B10438
:100FD000B9F28B85082E000C990B97FF03C09195F1
:100FE00081959109181419041A041B040CF08195B9
:100FF000909171009B7F909371009091F5029F5F9B
:101000009093F50278941F8A1E8A24E130E03F878E
:101010002E871B8A1A8A9EA19F3F51F094E098A3C5
:101020008B871D8E1C8E4A825B826C827D8298CF5C
:1010300097E0F5CF8B85082E000C990B97FF03C026
:1010400091958195910914161506160617060CF050
:101050008195909171009B7F909371009091F50222
:101060009F5F9093F5027894222321F1FE01EB5BC0
:10107000FF4FC080D180E280F380C40ED51EE61EF3
:10108000F71E89A09AA0ABA0BCA097018601081901
:1010900019092A093B0948015901181419041A04AD
:1010A0001B0424F589A09AA0ABA0BCA0C818D9083D
:1010B000EA08FB088B87CA82DB82EC82FD8281E032
:1010C000452B462B472B09F445CF88A1853008F0E6
:1010D00047CF1F8A1E8A84E190E09F878E871B8AF4
:1010E0001A8A8EA18F3F79F084E034CF89A09AA02C
:1010F000ABA0BCA0950184010C191D092E093F0964
:1011000068017901D7CF85E025CFF8948091A704B5
:101110009091A804A091A904B091AA048093CB0453
:101120009093CC04A093CD04B093CE0478942091F6
:10113000CA046091CB047091CC048091CD0490914D
:10114000CE042330A1F49B01AC018091AB048F73DA
:10115000A1F0DA01C90144275527BA01481B590BF0
:101160006A0B7B0B21E086E894E00C94990630E052
:1011700050E040E00E94981DE8CF08950F931F9320
:10118000FC01962F85A18F73A1F1428D538D6111C2
:1011900060C0809171008B7F809371008091F50217
:1011A0008F5F8093F502452B39F5789480A18430C8
:1011B00080F0DF01A05CBF4F1D921D921D921C921A
:1011C000139781E090E0A0E0B0E082839383A48352
:1011D000B5838091F502882319F081508093F50240
:1011E0008091F502811105C0809171008460809327
:1011F00071001F910F910895789480A1853009F1B5
:1012000098F4843009F14281538164817581DF0152
:10121000A05CBF4F4D935D936D937C9313971682A3
:10122000178210861186D5CF873011F0893059F793
:10123000848D958DB0E0A0E082839383A483B583F1
:10124000E2CF828D938DF6CF81E090E0A0E0B0E018
:10125000F3CF70E060E0913091F48EEF9FEFAFEF4D
:10126000BFE78C019D01041B150B260B370BB90141
:10127000A80120E0CF011F910F910C9499064E5FB9
:101280005F4F6F4F7F47F5CF2F923F924F925F9204
:101290006F927F928F929F92AF92BF92CF92DF9286
:1012A000EF92FF920F931F93CF93DF93CDB7DEB7EB
:1012B0002E970FB6F894DEBF0FBECDBF9A838983F9
:1012C000FC0195A19F7309F4EFC11A0157FF04C0F7
:1012D00022243324241A350A57FF03C0F1E02F1AC1
:1012E000310881E828168EE3380620F030E8232EF6
:1012F0003EE3332E8A014B01E981FA81FE87ED87B7
:10130000809171008B7F809371008091F5028F5FD7
:101310008093F5027894672B09F098C187A1882300
:1013200009F472C124E1A22EB12C1092F502809131
:101330007100846080937100950150E040E060E8A6
:1013400076E988E990E00E94981D69017A0188ECAD
:10135000482E512C612C712CCA01B901A3019201B4
:101360000E94981D2D833E834F83588769877A8713
:101370008B879C87D1015096A70196010E94CE1DB4
:10138000A30192010E94981D293EFDEF3F074105F0
:101390005105ECF060E47DE586EC90E0A701960154
:1013A0000E94981D190180E1281A31082131310568
:1013B00010F4312C212CD1015096A70196010E94E6
:1013C000CE1D28EC30E040E050E00E94981D39012D
:1013D00017FD06C0ED85FE85B7AEA6AE35AE24AED0
:1013E000809171008B7F809371008091F5028F5FF7
:1013F0008093F5027894ED85FE85828D938D820D24
:10140000931D892B09F4C8C0CF010E947706882359
:1014100009F4C2C0ED85FE858489958986159705F6
:1014200009F4BAC0F5E0FB8341E050E05A834983F8
:10143000ED85FE85F0A1FC83ED85FE85C280D3801D
:10144000E480F580FB81F150FB83FF2339F010929B
:10145000F50280917100846080937100ED85FE85B6
:10146000048D158D9801205F3F4FD3010E94BF1D51
:101470002489358950E040E00E94981D2901F0E15F
:101480004F1A51082131310510F4512C412CED85B2
:10149000FE8582AD93ADA816B90629F12414350452
:1014A00008F0F8C09201AAE0B0E00E94BF1D01154B
:1014B000110509F0E7C06B5F7F4F8F4F9F4F2AE008
:1014C00030E040E050E00E94981DC90129839A83D2
:1014D00049815A811416150624F081E090E09A8320
:1014E000898399E09C83ED85FE850681178120859F
:1014F0003185C20169817A810E94621DCB01B0E011
:10150000A0E0B701A601401B510B620B730B4817FB
:1015100059076A077B0708F0C0C0C201B0E0A0E02D
:101520000C191D092E093F09080F191F2A1F3B1FFF
:10153000F8E0FC834B81442359F0409171004B7FCC
:10154000409371004091F5024F5F4093F50278940B
:10155000ED85FE854281538164817581C416D5066F
:10156000E606F70619F0FB81F11162CF4C81ED859B
:10157000FE8540A3558E448E49815A81578F468FF0
:101580000097A105B10541F082839383A483B583BD
:1015900006831783208731874D815E81ED85FE8527
:1015A0005587448789859A85918B808B758A648A53
:1015B000338E228E1092F5028091710084608093A8
:1015C0007100892811F4B12CA12CED85FE85B3AEF4
:1015D000A2AE828D938D2E960FB6F894DEBF0FBE0D
:1015E000CDBFDF91CF911F910F91FF90EF90DF90D2
:1015F000CF90BF90AF909F908F907F906F905F90B3
:101600004F903F902F9008958D859E850E9477067C
:101610008823C1F0ED85FE85828D938D892B19F08D
:1016200081E087A37FCE82E0ED85FE8587A386A13A
:101630008F3F09F477CE808D918D9787868783E0E1
:1016400080A370CE82E0ED85FE85EBCFED85FE8533
:1016500086A18F3F49F087A1823031F4808D918D32
:101660009787868784E080A35401F9EA8F16F1E614
:101670009F0620F098EAA92E91E6B92EED85FE8509
:1016800017A253CE980150E040E00E94981DCA0175
:10169000B90111CFE7E0EC8326CF00E010E098011C
:1016A00080E090E0DC0146CF90E080E094CF0F93A3
:1016B0001F93CF93DF938C01EB01693A714610F0D1
:1016C000C8EAD1E6F801A4ADB5AD9E010E94BF1DE8
:1016D00026AD37AD50E040E00E94981DA90140952D
:1016E0005095BE01C801DF91CF911F910F910C94CD
:1016F0004409CF93DF93DC0195969C9195979F7356
:10170000953009F44AC030F49330A9F19430E9F1EE
:1017100080E038C0963009F447C09730C9F7ED0132
:1017200050E040E070E088A599A59A01220F331F90
:10173000FB01042E02C0F595E7950A94E2F7240F09
:10174000351FE0FF0FC0FD01E20FF31F22A5FC01D2
:101750003081232B20834F5F5F4F23964430510508
:1017600011F7D6CFFD01E20FF31F22A5FC01308156
:1017700020952323EFCF8091F702807F682B609321
:10178000F70281E0DF91CF9108958091F7028F7089
:10179000F0E16F9FB0011124F1CF8091F802807FBA
:1017A000682B6093F802EDCF8091F8028F7090E182
:1017B000699FB0011124F4CF2F923F924F925F9214
:1017C0006F927F928F929F92AF92BF92CF92DF9251
:1017D000EF92FF920F931F93CF93DF937894C09172
:1017E000DA03D091DB03209709F409C1B12C082F4B
:1017F00010E0AA24A39465E0862E77E0972EE8E017
:101800007E2EF0EFEF2EFF24FA94A2E05A2EB3E0E2
:101810006B2E88E8C82E83E1D82E8DA18F73883077
:1018200049F4F8948AA5E8A5F9A5908180958923C3
:101830008083789488A1853008F4F4C08FA1823029
:1018400009F4C2C08E859F85892B31F08E899F89CE
:10185000800F911F9F8B8E8B2E893F898E859F8550
:101860002817390708F49CC01F8A1E8A49A15AA16B
:101870006BA17CA12B85822F022E000C990BAA0B49
:10188000BB0B840F951FA61FB71F89A39AA3ABA3F9
:10189000BCA3EA85E20FE8300CF44FC1E0E0EA8730
:1018A000F8948DA18F73853009F451C1863008F406
:1018B00086C1873009F437C208F466C2883091F4D3
:1018C000EBA5FCA58B8518160CF0AAC29DA58081FE
:1018D000892B8083A092F6029AA5E8A5F9A58081BC
:1018E000892B808378948A819B81AC81BD8101970B
:1018F000A109B1098A839B83AC83BD83892B8A2B81
:101900008B2B09F032C18E819F81A885B985009704
:10191000A105B10509F482C12B8521952B878A8306
:101920009B83AC83BD831E821F821886198698A272
:101930002C8D3D8D8A8D9B8D2817390708F0E3C1CA
:101940008C899D89F9017096BF010E94621D7F8775
:101950006E874A895B89840F951F9B8B8A8BE8175A
:10196000F90768F44E855F854F5F5F4F5F874E874D
:10197000A701421B530B840F951F9B8B8A8B8A8177
:101980009B81AC81BD812F5F3F4FA90170E060E07A
:10199000481759076A077B0708F00FC13D8F2C8F46
:1019A0008091F602482F50E02E853F856E897F8911
:1019B000261B370B4217530728F08E859F852E89EB
:1019C0003F89821B8093F6020990D881C02D209711
:1019D00009F023CF8091D903882389F0BB2079F0C7
:1019E000E091D703F091D80390818091D603809540
:1019F000892380831092F9028091F8028EBDDF91D5
:101A0000CF911F910F91FF90EF90DF90CF90BF90FB
:101A1000AF909F908F907F906F905F904F903F908E
:101A20002F900895843009F446C0833069F68E897A
:101A30009F89800F911F9F8B8E8B2E893F898E856A
:101A40009F852817390750F11F8A1E8A2EA12E3F25
:101A500009F42EC130E0F901E855FE4F8491F901F7
:101A6000E251FE4F4490F901E25BFD4F24902220A9
:101A7000A1F03DA08111C1C1E22DF0E0EE0FFF1FEA
:101A8000EC5CFD4FA591B4918FB7F89437FE9AC1E5
:101A90009C91409449224C928FBFA8A28091F6025B
:101AA0002E853F854E895F89241B350B82171306CF
:101AB00008F488CF82CF8FA1823009F485CF2EA180
:101AC0002E3F09F497C030E0F901E855FE4F8491AC
:101AD000F901E251FE4F4490F901E25BFD4F249081
:101AE0002220B9F03DA037FA332430F8811167C1C4
:101AF000E22DF0E0EE0FFF1FEC5CFD4FA591B491DD
:101B00008FB7F894332009F4DAC0EC914E2A4C9246
:101B10008FBF888D998D9F878E878A8D9B8D892B0E
:101B200011F588A28091F6022E853F858217130653
:101B300008F448CF8E859F8545CFE7FFB0CEE85F9C
:101B4000EA87F8948DA18F73853009F0AFCE80912C
:101B5000F802807FEE0FFF0BE55FFD4F9081892B30
:101B60008093F80244C098A2DDCF88A1873009F4A1
:101B7000DFCE08F062C0853009F012CF8C859D85DC
:101B80009F878E878A899B8928893989820F931F2D
:101B9000893C910508F097C09B8B8A8B4A815B81B9
:101BA0006C817D818A8D9B8D0196B0E0A0E08417C9
:101BB0009507A607B70708F4F3CE78A2F1CE8330D5
:101BC00009F4F3C0843009F08DCE8091F7028F7054
:101BD000EE0FFF0BE55FFD4F20813181229532959D
:101BE000307F3227207F3227822B8093F702BB245D
:101BF000B39478CEEA85EE0FFF0BE55FFD4F608171
:101C0000CE010E94790BB82E888D998D9F878E8783
:101C10008A8D9B8D892B09F484CFA5CF1D8E1C8EB8
:101C20008EA18F3F09F47BC0888D998D9F878E8709
:101C300068A241E050E081E0B7CE8A3008F0B0CE33
:101C4000EC8DFD8D8A8D9B8D8E179F0708F045C00A
:101C50002E8D3F8DAF01481B590B2417350708F017
:101C6000B4C0CF01821B930B9C019D8F8C8FFC0114
:101C700070968C899D89BF010E94621D7F876E8747
:101C80004A895B89840F951F9B8B8A8BE817F9071C
:101C900008F086CE4E855F854F5F5F4F5F874E872A
:101CA000A701421B530B840F951F9B8B8A8B78CE09
:101CB00060E0CE010E94790BB82EA8A2EFCE9C91D5
:101CC0004094492224CF885C91099B8B8A8B8E8516
:101CD0009F8501969F878E8761CF4A815B816C814A
:101CE0007D81CF01B0E0A0E084179507A607B70774
:101CF00008F498A28C899D899F01215031093D8F5C
:101D00002C8F3F96B8CF2C853D853F872E8728891D
:101D100039893B8B2A8B9D8F8C8F88A241CEDF86A1
:101D2000CE86A8A23DCEEE0FFF0BE55FFD4F908162
:101D30008CA9892780FF08C0E8A5F9A52AA53081CC
:101D400090FF6AC0232B208381FF08C0EBA5FCA570
:101D50002DA5308191FF5CC0232B208382FF08C01A
:101D6000EEA5FFA528A9308192FF4EC0232B20832A
:101D700083FF08C0E9A9FAA98BA9208193FF40C07D
:101D8000822B80839CABAECD8091F8028F70EE0FDA
:101D9000FF0BE55FFD4F2081318122953295307F29
:101DA0003227207F3227822BDBCE8091F702807F83
:101DB000EE0FFF0BE55FFD4F9081892B16CF0E9440
:101DC000070296CEEC914E2A66CE88A29D8F8C8F0C
:101DD0008C859D859F878E871B8A1A8A8FA181306B
:101DE00009F0DECD5FA28EA18F3F09F4D9CD888D99
:101DF000998D9F878E8768A2D3CD0E9407023CCE23
:101E0000809582238083BECF209523232083B0CF6B
:101E1000209523232083A2CF20952323208394CFB2
:101E20008DA590818095892354CDEF92FF920F93D9
:101E30001F93CF93DF93809118050E946E02019744
:101E400009F05BC0C8E1D5E004EC13E080E2E82EC5
:101E500085E0F82E888122960E946E02F801819317
:101E600091938F01EC16FD06A9F78091C403909120
:101E7000C5038130910509F05CC08091F1028111A8
:101E800003C081E08093F1028091C6039091C70363
:101E90008130910509F053C08091F202811103C095
:101EA00081E08093F2028091C8039091C903813050
:101EB000910509F04AC08091F302811103C081E0CD
:101EC0008093F3028091CA039091CB0381309105F6
:101ED00009F041C08091F402811103C081E0809338
:101EE000F40268EC70E080E090E0DF91CF911F9108
:101EF0000F91FF90EF900C94380380911A050E9487
:101F00006E02019709F49ECF80911C050E946E021B
:101F1000019709F497CF80911E050E946E020197E8
:101F200009F490CFDF91CF911F910F91FF90EF9027
:101F30000895892B09F0A8CF1092F102A5CF892B23
:101F400009F0B1CF1092F202AECF892B09F0BACFCF
:101F50001092F302B7CF892B21F61092F402C1CF71
:101F600060E086E894E00E94BE0860E08FEC94E0B8
:101F70000E94BE088FEF9FEF9093020280930102B0
:101F80001092B803089560E086E894E00E94BE08CD
:101F900060E08FEC94E00E94BE0881E090E09093B6
:101FA0000202809301028093B803089560E086E8FE
:101FB00094E00E94BE0860E08FEC94E00E94BE08AE
:101FC00081E090E090930202809301021092B803A6
:101FD000089560E086E894E00E94BE0860E08FEC1F
:101FE00094E00E94BE088FEF9FEF909302028093CF
:101FF000010281E08093B8030895CF93C0911A0540
:102000008C2F0E946E02892B69F48C2F0E946E0225
:10201000019731F0809118050E946E02019771F7C7
:102020000E94150F8091C4039091C503019719F484
:1020300081E08093B9038091C6039091C703019713
:1020400019F481E08093BB03CF910895CF92DF9282
:10205000EF92FF920F931F93CF93DF93EC018B01CD
:102060006C01F12CE12CD801EC91F0E0E25BFD4F2A
:10207000E491F0E0EE0FFF1FEC5CFD4F8591949131
:10208000F60191A780A7EC91F0E0E251FE4FE491B8
:10209000D701AA0FBB1FAE0DBF1DAC0FBD1F9A9677
:1020A000EC9361E0F80180810E94C50260E0D801F4
:1020B0008D918D010E949702B3E0CB0ED11CEA9462
:1020C000EF28E9F511E01B878DA1807C88608DA346
:1020D00018A350E040E068EB7BE0CE010E94440989
:1020E0008091D50381111CC08FB7F8941092900095
:1020F0009AE19093910020E43CE93093970020937B
:10210000960024E630E0309399002093980020E96F
:1021100031E030939B0020939A008FBF1093D5033A
:102120008091710084608093710081E0DF91CF9194
:102130001F910F91FF90EF90DF90CF900895EE24C4
:10214000E394F12C90CF0F931F93CF938C01C62F64
:102150000E948D056C2F6460C8010E948D056C2F54
:102160006B7FC8010E948D0583EC90E00197F1F729
:10217000CF911F910F9108950F931F93CF93DF93EA
:102180008C01D62FC42F607F642B0E94A31080E1A6
:10219000D89FB00111246C2BC801DF91CF911F9102
:1021A0000F910C94A310CF93DF9300D000D01F9217
:1021B0001F92CDB7DEB798E0E3E0F2E0DE011196C2
:1021C00001900D929A95E1F790913205961708F4D7
:1021D0006FEF262F30E0220F331F41E050E04C0F0D
:1021E0005D1F240F351FF9016081680F606840E0B2
:1021F0008AE295E028960FB6F894DEBF0FBECDBFF9
:10220000DF91CF910C94BC1040E061E08AE295E050
:102210000E94BC108BE39FE10197F1F7089541E024
:102220000E94BC1081E090E00895FB010190002025
:10223000E9F73197AF01461B570BDC01ED91FC919B
:102240000280F381E02D19944F925F926F927F92FA
:102250008F929F92AF92BF92CF92DF92EF92FF92B6
:102260000F931F93CF93DF93CDB7DEB7A1970FB630
:10227000F894DEBF0FBECDBF8C016B01770FEE0867
:10228000FF08F7FE50C0DC01ED91FC910190F08158
:10229000E02D6DE219955C0122273327A9012C1945
:1022A0003D094E095F0919A2FE01B1967F019AE02E
:1022B000492E512C612C712CCA01B901A301920144
:1022C0000E94761D605DD7016E937D012115310559
:1022D0004105510589F790E080E0109721F0BD019C
:1022E000C8010E941511A80EB91E6BE472E0C80166
:1022F0000E9415118A0D9B1DA1960FB6F894DEBFA2
:102300000FBECDBFDF91CF911F910F91FF90EF9046
:10231000DF90CF90BF90AF909F908F907F906F9005
:102320005F904F900895A701960119A2FE01B19602
:102330007F018AE0882E912CA12CB12CCA01B90111
:10234000A50194010E94761D605DD7016E937D0109
:10235000211531054105510589F7B12CA12C1097A4
:1023600021F2BD01C8010E9415115C01BECFCF92C0
:10237000DF92EF92FF92CF93DF938DE30E94F602FC
:102380009093270580932605BC01990F880B990B24
:102390000E94401C20E030E446E254E40E94961B78
:1023A0006B017C016091280570912905072E000CB6
:1023B000880B990B0E94401C9B01AC01C701B60120
:1023C0000E94F51C20E030E040E85FE30E94251BFE
:1023D0000E94081C70932505609324052091EF024C
:1023E0003091F0022617370789F02FB7F8948091C3
:1023F000CD039091CE03A091CF03B091D0032FBF16
:102400009093EE028093ED021092EC022FB7F894B5
:102410008091CD039091CE03A091CF03B091D003D2
:102420002FBF4091ED025091EE02052E000C660B7D
:10243000770B841B950BA60BB70BC0912405D0918D
:10244000250581329340A105B10530F18091EC0260
:10245000811122C08AE293E0C89FB001C99F700D2C
:10246000D89F700D11247093230560932205072EC9
:10247000000C880B990B0E94401C27E339E841E0CF
:102480005FE30E94F51C0E94081C70932105609375
:10249000200581E08093EC02D093F002C093EF021C
:1024A000809126050E94F602BC018DED93E0DF913C
:1024B000CF91FF90EF90DF90CF900C9424110F9369
:1024C0001F93CF93DF93EC010E9415118C016BE4F5
:1024D00072E0CE010E941511800F911FDF91CF9104
:1024E0001F910F91089560E080E00E94D3106EE488
:1024F00072E08AE295E00E945F1282E20E946E0220
:10250000892BA1F482E20E946E02BC018DED93E062
:102510000E94241160E271EA86E894E00E94570B61
:102520006FEF86E894E00E94BE08E7CF0E94C901E1
:102530000E94C9018091AB048F7311F00E9485083D
:102540001092B4031092B5031092B6031092B70321
:1025500020E030E040EA50E46091B4037091B503AC
:102560008091B6039091B7030E94911B87FF2CC006
:1025700082E20E946E02BC018DED93E00E94241164
:1025800060E271EA86E894E00E94570B0E94D8014D
:102590000E94401C20E030E040E051E40E94F51C25
:1025A00020E030E048E455E40E94961B6093B403B9
:1025B0007093B5038093B6039093B70361E086E808
:1025C00094E00E94BE08C4CF0E94C9018091AB0470
:1025D0008F7311F00E9485081092B4031092B50316
:1025E0001092B6031092B7030E94041160E080E0DD
:1025F0000E94D3106AE572E08AE295E00E945F12C1
:1026000060ED77E080E090E00E9438038FEF9FEF6D
:10261000909302028093010281E08093BA030895AF
:1026200085ED8093BC008091860390918703A091F3
:102630008803B09189030796A11DB11D23E0B695CB
:10264000A795979587952A95D1F72091BC0024FDF1
:1026500003C010928403089540918603509187032C
:102660006091880370918903452B462B472B69F3B2
:102670000097A105B10541F02AE22A95F1F700C0C3
:102680000197A109B109E1CF809185030C94E6047B
:102690001F920F920FB60F9211242F933F938F9397
:1026A0009F93AF93BF938091CD039091CE03A09160
:1026B000CF03B091D0033091CC0323E0230F2D370B
:1026C00058F50196A11DB11D2093CC038093CD0335
:1026D0009093CE03A093CF03B093D0038091D10306
:1026E0009091D203A091D303B091D4030196A11D80
:1026F000B11D8093D1039093D203A093D303B093E1
:10270000D403BF91AF919F918F913F912F910F90E3
:102710000FBE0F901F90189526E8230F0296A11D5B
:10272000B11DD2CF1F920F920FB60F9211240BB68C
:102730000F922F933F934F935F936F937F938F935A
:102740009F93AF93BF93EF93FF938DED93E00E9420
:10275000E003FF91EF91BF91AF919F918F917F9196
:102760006F915F914F913F912F910F900BBE0F9002
:102770000FBE0F901F9018951F920F920FB60F92D9
:1027800011240BB60F922F938F939F93EF93FF9388
:10279000E091ED03F091EE038081E091F303F0917D
:1027A000F40382FD1DC090818091F6038F5F8F73CB
:1027B0002091F703821741F0E091F603F0E0E35235
:1027C000FC4F958F8093F603FF91EF919F918F912E
:1027D0002F910F900BBE0F900FBE0F901F9018956A
:1027E0008081F2CF1F920F920FB60F9211240BB679
:1027F0000F922F933F934F935F936F937F938F939A
:102800009F93AF93BF93EF93FF938091B900887F1D
:10281000803609F44DC008F040C0883209F4A9C0E0
:1028200028F5803109F49DC0C8F4882309F4FBC061
:10283000883009F496C0FF91EF91BF91AF919F91BD
:102840008F917F916F915F914F913F912F910F9059
:102850000BBE0F900FBE0F901F901895883109F492
:1028600088C0803241F78093820314C0803409F419
:102870009DC040F48033B9F38833E9F68093820336
:1028800085ECB0C0803509F485C0883509F496C060
:10289000883489F60E941013CECF883909F48CC091
:1028A00038F5883729F050F4883611F0803719F65A
:1028B00083E08093840310925D0357C0883809F445
:1028C0007BC0803919F0803809F0B5CF80915D0365
:1028D000803208F071C0E0915D0381E08E0F80933B
:1028E0005D038091BB00F0E0E35CFC4F80833DC062
:1028F000803B39F0E0F4803A09F479C0883A09F075
:102900009ACF84E08093840310923C0310923B039F
:10291000E091AE03F091AF03199580913B038111D3
:102920000FC081E080933B0310921B0309C0803CE1
:1029300009F4A6CF883C09F4A3CF883B09F07BCFEC
:10294000E0913C0381E08E0F80933C03F0E0E55E74
:10295000FC4F80818093BB0090913C0380913B03AE
:1029600029C080915F038093BB0085EC8093BC00FD
:1029700062CF9091810380918003981758F5E09180
:10298000810381E08E0F80938103F0E0E05AFC4FD9
:102990008081E9CFE091810381E08E0F80938103F4
:1029A0008091BB00F0E0E05AFC4F8083909181035E
:1029B000809180039817C8F285E8D8CFE091810311
:1029C00081E08E0F809381038091BB00F0E0E05A9C
:1029D000FC4F80838091830381115CCF81E08093E1
:1029E0005E0384EA8093BC001092840324CF85ECBC
:1029F0008093BC001092840380915D03803230F498
:102A0000E0915D03F0E0E35CFC4F108260915D03B8
:102A100070E0E091AC03F091AD038DE393E0199584
:102A200010925D0308CF1092820334CF1F920F9251
:102A30000FB60F9211240BB60F928F939F93EF93C3
:102A4000FF938091F90291E0980F9093F902811120
:102A50000EC08091F7028EBDFF91EF919F918F91F3
:102A60000F900BBE0F900FBE0F901F901895E09126
:102A7000D703F091D80380819091D603892B80836E
:102A80001092F902E9CF1F920F920FB60F92112404
:102A90000BB60F922F933F934F935F936F937F9358
:102AA0008F939F93AF93BF93CF93EF93FF9389E15E
:102AB0008093F602C09100028C2F0E94DC0B80E014
:102AC00090E0892B19F08C2F0E940000F89420913F
:102AD000F602213009F042C0809194009091950057
:102AE00020919A0030919B00821B930B893E23E03A
:102AF000920710F0805C93468738914040F18091B6
:102B00009400909195000A9681342CE9920710F078
:102B100080549C4990939B0080939A007894809174
:102B2000F60280930002FF91EF91CF91BF91AF9198
:102B30009F918F917F916F915F914F913F912F91D5
:102B40000F900BBE0F900FBE0F901F9018958091A5
:102B50009A0090919B0080579E4FD6CF80919A000B
:102B600090919B00B0E0A0E0B595A79597958795CB
:102B700048EC249F90011124820F931F81322EE490
:102B8000920710F080529E44880F991FC3CFEDED3D
:102B9000F3E01382128288EE93E0A0E0B0E0848339
:102BA0009583A683B7832FE132E03183208325EC20
:102BB00030E03587248724EC30E03787268720EC07
:102BC00030E0318B208B21EC30E0338B228B22ECF8
:102BD00030E0358B248B26EC30E0378B268B118E42
:102BE000128E138E148EEAE7F4E01382128284832D
:102BF0009583A683B78381E392E091838083EAE2A1
:102C0000F5E01382128283E492E09183808387E26D
:102C1000848380E1818782E08287138683E190E06C
:102C200090932905809328056091260570912705CA
:102C3000072E000C880B990B0E94401C20E030E40A
:102C400046E254E40E94961B20E030E048E951E45B
:102C50000E94F51C20E030E040E85FE30E94251B65
:102C60000E94081C709325056093240524E6269F86
:102C7000A001279F500D1124509323054093220556
:102C8000BA01550F880B990B0E94401C27E339E8C5
:102C900041E05FE30E94F51C0E94081C709321052F
:102CA00060932005E8E1F5E08DE090E0918380837A
:102CB0008CE090E0938382838BE090E09583848323
:102CC0008AE090E0978386838FEC94E00E947E01F7
:102CD00086E894E00C947E01CF93DF931F921F92BD
:102CE000CDB7DEB7789484B5826084BD84B5816049
:102CF00084BD85B5826085BD85B5816085BD8091C7
:102D00006E00816080936E0010928100809181003E
:102D10008260809381008091810081608093810036
:102D2000809180008160809380008091B1008460F8
:102D30008093B1008091B00081608093B000809159
:102D400091008260809391008091910081608093D6
:102D50009100809190008160809390008091A1000B
:102D600082608093A1008091A10081608093A10086
:102D70008091A00081608093A000809121018260F9
:102D800080932101809121018160809321018091B4
:102D9000200181608093200180917A00846080937B
:102DA0007A0080917A00826080937A0080917A0024
:102DB000816080937A0080917A00806880937A00A5
:102DC0001092C100E091ED03F091EE0382E0808368
:102DD000E091E903F091EA031082E091EB03F091B6
:102DE000EC038FEC80831092F503E091F103F091F6
:102DF000F20386E08083E091EF03F091F00380819D
:102E000080618083E091EF03F091F003808188601E
:102E10008083E091EF03F091F003808180688083EC
:102E2000E091EF03F091F00380818F7D808361E07A
:102E300089E20E94C50261E08FE10E94C50261E063
:102E40008BE20E94C50261E08FE10E94C50260E052
:102E50008DE30E94C50261E083E20E94970261E077
:102E600085E20E94970261E087E20E949702109239
:102E7000B3031092B2031092B1031092B0030E94F8
:102E8000C8048AE693E09093AF038093AE038BE689
:102E900093E09093AD038093AC0310922F05809143
:102EA0003405823018F098E090932F058093320516
:102EB00062E370E080E090E00E94380360913505A5
:102EC0008AE295E00E948D0568EE73E080E090E074
:102ED0000E94380360E38AE295E00E94A3100BE4AD
:102EE00016E4C8010197F1F760E38AE295E00E94D9
:102EF000A310C8010197F1F760E38AE295E00E9410
:102F0000A31083E592E00197F1F760E28AE295E091
:102F10000E94A31060912F05606240E08AE295E074
:102F20000E94BC1084E08093300540E06CE08AE2AF
:102F300095E00E94BC100E94041182E0809331054C
:102F400040E066E08AE295E00E94BC1040E062E06A
:102F50008AE295E00E94BC108BE39FE10197F1F7B4
:102F600088E08093350560E08AE295E00E948D0557
:102F700060E082E20E94C50260E08DE30E94C5022B
:102F800080911305833059F48FE189838DE18A8321
:102F9000BE016F5F7F4F8FEC94E00E94261060911E
:102FA0002205709123058FEC94E00E94570B8091CD
:102FB000CA04833059F489E289838BE28A83BE0193
:102FC0006F5F7F4F86E894E00E9426106091200595
:102FD0007091210586E894E00E94570B6091C0042F
:102FE0007091C10441E050E086E894E00E944409F9
:102FF0006091090570910A0541E050E08FEC94E082
:103000000E94440960E08DE00E94C50260E08CE00F
:103010000E94C50260E08BE00E94C50260E08AE089
:103020000E94C5020E94731208E115E0F801808138
:103030000E5F1F4F60E00E94C502F5E000321F07DF
:10304000A9F764E170E080E090E00E94380301E0BD
:1030500010E00E94150F809118050E946E02892BC6
:1030600009F0EFC280911A050E946E02892B09F0C7
:10307000E8C280911C050E946E02892B09F0E1C212
:1030800080911E050E946E02892B09F0DAC28091A0
:10309000CA039091CB03892B51F48091BC0390918A
:1030A000BD03019721F48091BB03882321F0809117
:1030B000BA038823C1F00E94041160E080E00E94FE
:1030C000D31065E672E08AE295E00E945F1261E04B
:1030D00080E00E94D31060E772E08AE295E00E94EF
:1030E0005F120E94FD0F8091C6039091C703019764
:1030F00031F48091BC039091BD03019729F0809138
:10310000BB03882309F4DCC11092BB030E940411A5
:103110001093BF030093BE031092C7031092C6031F
:1031200060E080E00E94D31069E772E08AE295E0F7
:103130000E94151161E080E00E94D31062E872E005
:103140008AE295E00E9415111092BA038091C6039D
:103150009091C703892B09F0B3C18091010290912E
:1031600002022091B8032111EAC08F3F980709F0AD
:1031700074C06CE872E08DED93E00E945F120E94D3
:10318000C90120E030E04EEC52E46091B40370914C
:10319000B5038091B6039091B7030E94911B181656
:1031A0000CF44BC00E94150F0E94B71161E08FEC28
:1031B00094E00E94BE0860912205709123058FEC77
:1031C00094E00E94570B61E086E894E00E94BE08FC
:1031D000609120057091210586E894E00E94570BCC
:1031E0000E94D8010E94401C20E030E040E051E401
:1031F0000E94F51C20E030E048E455E40E94961B54
:103200006093B4037093B5038093B6039093B703B0
:1032100061E08AE00E94D310609124057091250539
:103220008AE295E00E9424118091C6039091C70321
:10323000019709F0A6CF0E94D8018091C603909112
:10324000C7038130910519F40E94E90F7FCF892BC4
:1032500009F07CCF0E94D60F79CF019709F076CF85
:1032600066E972E08DED93E00E945F1220E030E0AD
:10327000A9016091B4037091B5038091B603909158
:10328000B7030E94F01C18160CF049C00E94150FDD
:103290000E94B71161E08FEC94E00E94BE0860913B
:1032A0002205709123058FEC94E00E94570B6FEF7D
:1032B00086E894E00E94BE08609120057091210587
:1032C00086E894E00E94570B0E94D8010E94401C9F
:1032D00020E030E040E051E40E94F51C20E030E0C6
:1032E00048E455E40E94961B6093B4037093B503C1
:1032F0008093B6039093B70361E08AE00E94D310F5
:1033000060912405709125058AE295E00E942411C0
:103310008091C6039091C703019709F0A7CF8091D0
:10332000C6039091C7038130910519F40E94C30F21
:103330000DCF892B09F00ACF0E94B00F07CF109252
:10334000B8038F3F980709F061C06FE972E08DED17
:1033500093E00E945F1220E030E04EEC52E4609176
:10336000B4037091B5038091B6039091B7030E94A6
:10337000911B18160CF461CF0E94150F0E94B71113
:1033800061E08FEC94E00E94BE086091220570918C
:1033900023058FEC94E00E94570B61E086E894E0EF
:1033A0000E94BE08609120057091210586E894E096
:1033B0000E94570B0E94D8010E94401C20E030E080
:1033C00040E051E40E94F51C20E030E048E455E480
:1033D0000E94961B6093B4037093B5038093B60369
:1033E0009093B70361E08AE00E94D31060912405B6
:1033F000709125058AE295E00E9424118091C60310
:103400009091C703019709F0A6CF17CF019709F054
:103410009DCE6CEA72E08DED93E00E945F1220E099
:1034200030E0A9016091B4037091B5038091B603B7
:103430009091B7030E94F01C87FD71CF0E94150F79
:103440000E94B71161E08FEC94E00E94BE08609189
:103450002205709123058FEC94E00E94570B6FEFCB
:1034600086E894E00E94BE080E94D8010E94401C99
:1034700020E030E040E051E40E94F51C20E030E024
:1034800048E455E40E94961B6093B4037093B5031F
:103490008093B6039093B70361E08AE00E94D31053
:1034A00060912405709125058AE295E00E9424111F
:1034B0008091C6039091C703019709F0B0CF2FCF39
:1034C0008091C4039091C503019731F48091BC03AE
:1034D0009091BD03019729F08091B903882309F4E5
:1034E00050C01092B9030E9404111093C1030093BD
:1034F000C00360E080E00E94D31068EB72E08AE2D3
:1035000095E00E94151161E080E00E94D31063EC09
:1035100072E08AE295E00E9415111092C5031092A4
:10352000C4031092C7031092C60380911C050E9429
:103530006E02019731F46FEF86E894E00E94BE08B6
:10354000F4CF60E086E894E00E94BE0860E08FEC73
:1035500094E00E94BE0880911E050E946E020197B1
:1035600021F461E086E894E0F4CF80911A050E948E
:103570006E02019731F0809118050E946E02892B2E
:10358000A1F28091C0039091C103019799F5E09059
:10359000C403F090C503F1E0EF16F10481F40E943A
:1035A0000411F092C303E092C2031092C10310927F
:1035B000C0030E9473121092C7031092C603E090DA
:1035C000C603F090C70321E0E216F10409F043CDF1
:1035D0000E9404111092C3031092C2031092C103FF
:1035E0001092C003F092BF03E092BE031092C50395
:1035F0001092C4038091C6039091C703019709F00C
:103600002ACD8091BE039091BF03019709F023CD8D
:103610000E94041160E080E00E94D31063ED72E02C
:103620008AE295E00E94151161E080E00E94D310CB
:103630006DED72E08AE295E00E9415110E94FD0F87
:103640000ACD0E946F0405CD5058BB27AA270E94BF
:103650003C1B0C94B61C0E94A81C38F00E94AF1CA6
:1036600020F039F49F3F19F426F40C94A51C0EF4B5
:10367000E095E7FB0C949F1CE92F0E94C71C58F3B0
:10368000BA17620773078407950720F079F4A6F547
:103690000C94E91C0EF4E0950B2EBA2FA02D0B0113
:1036A000B90190010C01CA01A0011124FF27591B87
:1036B00099F0593F50F4503E68F11A16F040A22F8D
:1036C000232F342F4427585FF3CF469537952795FE
:1036D000A795F0405395C9F77EF41F16BA0B620BFD
:1036E000730B840BBAF09150A1F0FF0FBB1F661F44
:1036F000771F881FC2F70EC0BA0F621F731F841F87
:1037000048F4879577956795B795F7959E3F08F0AC
:10371000B0CF9395880F08F09927EE0F979587956E
:1037200008950E947B1C08F481E008950E94AA1B62
:103730000C94B61C0E94AF1C58F00E94A81C40F0CC
:1037400029F45F3F29F00C949F1C51110C94EA1C42
:103750000C94A51C0E94C71C68F39923B1F3552350
:1037600091F3951B550BBB27AA2762177307840794
:1037700038F09F5F5F4F220F331F441FAA1FA9F32A
:1037800035D00E2E3AF0E0E832D091505040E69518
:10379000001CCAF72BD0FE2F29D0660F771F881F79
:1037A000BB1F261737074807AB07B0E809F0BB0B6C
:1037B000802DBF01FF2793585F4F3AF09E3F510580
:1037C00078F00C949F1C0C94EA1C5F3FE4F3983E45
:1037D000D4F3869577956795B795F7959F5FC9F769
:1037E000880F911D9695879597F90895E1E0660FEA
:1037F000771F881FBB1F621773078407BA0720F063
:10380000621B730B840BBA0BEE1F88F7E0950895CB
:103810000E940F1C6894B1110C94EA1C08950E9438
:10382000CF1C88F09F5798F0B92F9927B751B0F067
:10383000E1F0660F771F881F991F1AF0BA95C9F734
:1038400014C0B13091F00E94E91CB1E008950C94CD
:10385000E91C672F782F8827B85F39F0B93FCCF380
:10386000869577956795B395D9F73EF490958095B1
:10387000709561957F4F8F4F9F4F0895E89409C0D1
:1038800097FB3EF490958095709561957F4F8F4F93
:103890009F4F9923A9F0F92F96E9BB279395F695A9
:1038A000879577956795B795F111F8CFFAF4BB0F27
:1038B00011F460FF1BC06F5F7F4F8F4F9F4F16C08B
:1038C000882311F096E911C0772321F09EE8872F15
:1038D000762F05C0662371F096E8862F70E060E0D1
:1038E0002AF09A95660F771F881FDAF7880F96954A
:1038F000879597F90895990F0008550FAA0BE0E8EE
:10390000FEEF16161706E807F907C0F012161306A1
:10391000E407F50798F0621B730B840B950B39F4E1
:103920000A2661F0232B242B252B21F408950A2647
:1039300009F4A140A6958FEF811D811D089597F987
:103940009F6780E870E060E008959FEF80EC089545
:1039500000240A941616170618060906089500246E
:103960000A9412161306140605060895092E0394E8
:10397000000C11F4882352F0BB0F40F4BF2B11F45C
:1039800060FF04C06F5F7F4F8F4F9F4F089557FDBB
:103990009058440F551F59F05F3F71F04795880FBD
:1039A00097FB991F61F09F3F79F087950895121654
:1039B00013061406551FF2CF4695F1DF08C0161600
:1039C00017061806991FF1CF8695710561050894B1
:1039D0000895E894BB2766277727CB0197F90895C8
:1039E0000E947B1C08F48FEF08950E94081D0C9420
:1039F000B61C0E94A81C38F00E94AF1C20F0952332
:103A000011F00C949F1C0C94A51C11240C94EA1C1E
:103A10000E94C71C70F3959FC1F3950F50E0551F8E
:103A2000629FF001729FBB27F00DB11D639FAA2713
:103A3000F00DB11DAA1F649F6627B00DA11D661F62
:103A4000829F2227B00DA11D621F739FB00DA11D83
:103A5000621F839FA00D611D221F749F3327A00D3D
:103A6000611D231F849F600D211D822F762F6A2FD9
:103A700011249F5750409AF0F1F088234AF0EE0F3E
:103A8000FF1FBB1F661F771F881F91505040A9F76B
:103A90009E3F510580F00C949F1C0C94EA1C5F3FE4
:103AA000E4F3983ED4F3869577956795B795F795A7
:103AB000E7959F5FC1F7FE2B880F911D969587951F
:103AC00097F90895AA1BBB1B51E107C0AA1FBB1F92
:103AD000A617B70710F0A61BB70B881F991F5A959A
:103AE000A9F780959095BC01CD010895A1E21A2E09
:103AF000AA1BBB1BFD010DC0AA1FBB1FEE1FFF1F92
:103B0000A217B307E407F50720F0A21BB30BE40BE1
:103B1000F50B661F771F881F991F1A9469F7609528
:103B20007095809590959B01AC01BD01CF010895E2
:103B3000052E97FB1EF400940E94AF1D57FD07D081
:103B40000E94761D07FC03D04EF40C94AF1D5095D7
:103B50004095309521953F4F4F4F5F4F0895909579
:103B60008095709561957F4F8F4F9F4F0895EE0F11
:103B7000FF1F881F8BBF0790F691E02D1994A29F1D
:103B8000B001B39FC001A39F700D811D1124911D31
:103B9000B29F700D811D1124911D08950E94BF1DBB
:103BA000A59F900DB49F900DA49F800D911D112491
:063BB0000895F894FFCF18
:103BB600010100000040001400540003000200064A
:103BC6000004000C000800090001000000000002CB
:103BD600046C0399034F04CA03A803BC0300000046
:103BE600005E053105740607052A05170508050058
:103BF6000000000F116C037406A0040D0A00436157
:103C06006C6962726174696E670043616C696272A5
:103C16006174656400507265737320506C6179003D
:103C2600746F20426567696E0053706F6F6C696EC2
:103C3600670053706F6F6C2072706D006D6F7665E4
:103C46005269676874006D6F76654C656674006DC1
:103C56006F76655269676874496E74006D6F766534
:103C66004C656674496E740043616C696272617476
:103C7600653F004D616E75616C20436F6E74203C2C
:103C8600203E005061757365642E2E2E00506C61C7
:0C3C96007920746F20636F6E74270000AB
:00000001FF
